{
  "_format": "hh-sol-artifact-1",
  "contractName": "VotingToken",
  "sourceName": "contracts/oracle/implementation/VotingToken.sol",
  "abi": [
    {
      "inputs": [],
      "stateMutability": "nonpayable",
      "type": "constructor"
    },
    {
      "anonymous": false,
      "inputs": [
        {
          "indexed": true,
          "internalType": "uint256",
          "name": "roleId",
          "type": "uint256"
        },
        {
          "indexed": true,
          "internalType": "address",
          "name": "newMember",
          "type": "address"
        },
        {
          "indexed": true,
          "internalType": "address",
          "name": "manager",
          "type": "address"
        }
      ],
      "name": "AddedSharedMember",
      "type": "event"
    },
    {
      "anonymous": false,
      "inputs": [
        {
          "indexed": true,
          "internalType": "address",
          "name": "owner",
          "type": "address"
        },
        {
          "indexed": true,
          "internalType": "address",
          "name": "spender",
          "type": "address"
        },
        {
          "indexed": false,
          "internalType": "uint256",
          "name": "value",
          "type": "uint256"
        }
      ],
      "name": "Approval",
      "type": "event"
    },
    {
      "anonymous": false,
      "inputs": [
        {
          "indexed": true,
          "internalType": "uint256",
          "name": "roleId",
          "type": "uint256"
        },
        {
          "indexed": true,
          "internalType": "address",
          "name": "oldMember",
          "type": "address"
        },
        {
          "indexed": true,
          "internalType": "address",
          "name": "manager",
          "type": "address"
        }
      ],
      "name": "RemovedSharedMember",
      "type": "event"
    },
    {
      "anonymous": false,
      "inputs": [
        {
          "indexed": true,
          "internalType": "uint256",
          "name": "roleId",
          "type": "uint256"
        },
        {
          "indexed": true,
          "internalType": "address",
          "name": "newMember",
          "type": "address"
        },
        {
          "indexed": true,
          "internalType": "address",
          "name": "manager",
          "type": "address"
        }
      ],
      "name": "ResetExclusiveMember",
      "type": "event"
    },
    {
      "anonymous": false,
      "inputs": [
        {
          "indexed": false,
          "internalType": "uint256",
          "name": "id",
          "type": "uint256"
        }
      ],
      "name": "Snapshot",
      "type": "event"
    },
    {
      "anonymous": false,
      "inputs": [
        {
          "indexed": true,
          "internalType": "address",
          "name": "from",
          "type": "address"
        },
        {
          "indexed": true,
          "internalType": "address",
          "name": "to",
          "type": "address"
        },
        {
          "indexed": false,
          "internalType": "uint256",
          "name": "value",
          "type": "uint256"
        }
      ],
      "name": "Transfer",
      "type": "event"
    },
    {
      "inputs": [
        {
          "internalType": "address",
          "name": "account",
          "type": "address"
        }
      ],
      "name": "addBurner",
      "outputs": [],
      "stateMutability": "nonpayable",
      "type": "function"
    },
    {
      "inputs": [
        {
          "internalType": "uint256",
          "name": "roleId",
          "type": "uint256"
        },
        {
          "internalType": "address",
          "name": "newMember",
          "type": "address"
        }
      ],
      "name": "addMember",
      "outputs": [],
      "stateMutability": "nonpayable",
      "type": "function"
    },
    {
      "inputs": [
        {
          "internalType": "address",
          "name": "account",
          "type": "address"
        }
      ],
      "name": "addMinter",
      "outputs": [],
      "stateMutability": "nonpayable",
      "type": "function"
    },
    {
      "inputs": [
        {
          "internalType": "address",
          "name": "owner",
          "type": "address"
        },
        {
          "internalType": "address",
          "name": "spender",
          "type": "address"
        }
      ],
      "name": "allowance",
      "outputs": [
        {
          "internalType": "uint256",
          "name": "",
          "type": "uint256"
        }
      ],
      "stateMutability": "view",
      "type": "function"
    },
    {
      "inputs": [
        {
          "internalType": "address",
          "name": "spender",
          "type": "address"
        },
        {
          "internalType": "uint256",
          "name": "amount",
          "type": "uint256"
        }
      ],
      "name": "approve",
      "outputs": [
        {
          "internalType": "bool",
          "name": "",
          "type": "bool"
        }
      ],
      "stateMutability": "nonpayable",
      "type": "function"
    },
    {
      "inputs": [
        {
          "internalType": "address",
          "name": "account",
          "type": "address"
        }
      ],
      "name": "balanceOf",
      "outputs": [
        {
          "internalType": "uint256",
          "name": "",
          "type": "uint256"
        }
      ],
      "stateMutability": "view",
      "type": "function"
    },
    {
      "inputs": [
        {
          "internalType": "address",
          "name": "account",
          "type": "address"
        },
        {
          "internalType": "uint256",
          "name": "snapshotId",
          "type": "uint256"
        }
      ],
      "name": "balanceOfAt",
      "outputs": [
        {
          "internalType": "uint256",
          "name": "",
          "type": "uint256"
        }
      ],
      "stateMutability": "view",
      "type": "function"
    },
    {
      "inputs": [
        {
          "internalType": "uint256",
          "name": "value",
          "type": "uint256"
        }
      ],
      "name": "burn",
      "outputs": [],
      "stateMutability": "nonpayable",
      "type": "function"
    },
    {
      "inputs": [
        {
          "internalType": "address",
          "name": "recipient",
          "type": "address"
        },
        {
          "internalType": "uint256",
          "name": "value",
          "type": "uint256"
        }
      ],
      "name": "burnFrom",
      "outputs": [
        {
          "internalType": "bool",
          "name": "",
          "type": "bool"
        }
      ],
      "stateMutability": "nonpayable",
      "type": "function"
    },
    {
      "inputs": [],
      "name": "decimals",
      "outputs": [
        {
          "internalType": "uint8",
          "name": "",
          "type": "uint8"
        }
      ],
      "stateMutability": "view",
      "type": "function"
    },
    {
      "inputs": [
        {
          "internalType": "address",
          "name": "spender",
          "type": "address"
        },
        {
          "internalType": "uint256",
          "name": "subtractedValue",
          "type": "uint256"
        }
      ],
      "name": "decreaseAllowance",
      "outputs": [
        {
          "internalType": "bool",
          "name": "",
          "type": "bool"
        }
      ],
      "stateMutability": "nonpayable",
      "type": "function"
    },
    {
      "inputs": [
        {
          "internalType": "uint256",
          "name": "roleId",
          "type": "uint256"
        }
      ],
      "name": "getMember",
      "outputs": [
        {
          "internalType": "address",
          "name": "",
          "type": "address"
        }
      ],
      "stateMutability": "view",
      "type": "function"
    },
    {
      "inputs": [
        {
          "internalType": "uint256",
          "name": "roleId",
          "type": "uint256"
        },
        {
          "internalType": "address",
          "name": "memberToCheck",
          "type": "address"
        }
      ],
      "name": "holdsRole",
      "outputs": [
        {
          "internalType": "bool",
          "name": "",
          "type": "bool"
        }
      ],
      "stateMutability": "view",
      "type": "function"
    },
    {
      "inputs": [
        {
          "internalType": "address",
          "name": "spender",
          "type": "address"
        },
        {
          "internalType": "uint256",
          "name": "addedValue",
          "type": "uint256"
        }
      ],
      "name": "increaseAllowance",
      "outputs": [
        {
          "internalType": "bool",
          "name": "",
          "type": "bool"
        }
      ],
      "stateMutability": "nonpayable",
      "type": "function"
    },
    {
      "inputs": [
        {
          "internalType": "address",
          "name": "recipient",
          "type": "address"
        },
        {
          "internalType": "uint256",
          "name": "value",
          "type": "uint256"
        }
      ],
      "name": "mint",
      "outputs": [
        {
          "internalType": "bool",
          "name": "",
          "type": "bool"
        }
      ],
      "stateMutability": "nonpayable",
      "type": "function"
    },
    {
      "inputs": [],
      "name": "name",
      "outputs": [
        {
          "internalType": "string",
          "name": "",
          "type": "string"
        }
      ],
      "stateMutability": "view",
      "type": "function"
    },
    {
      "inputs": [
        {
          "internalType": "uint256",
          "name": "roleId",
          "type": "uint256"
        },
        {
          "internalType": "address",
          "name": "memberToRemove",
          "type": "address"
        }
      ],
      "name": "removeMember",
      "outputs": [],
      "stateMutability": "nonpayable",
      "type": "function"
    },
    {
      "inputs": [
        {
          "internalType": "uint256",
          "name": "roleId",
          "type": "uint256"
        }
      ],
      "name": "renounceMembership",
      "outputs": [],
      "stateMutability": "nonpayable",
      "type": "function"
    },
    {
      "inputs": [
        {
          "internalType": "uint256",
          "name": "roleId",
          "type": "uint256"
        },
        {
          "internalType": "address",
          "name": "newMember",
          "type": "address"
        }
      ],
      "name": "resetMember",
      "outputs": [],
      "stateMutability": "nonpayable",
      "type": "function"
    },
    {
      "inputs": [
        {
          "internalType": "address",
          "name": "account",
          "type": "address"
        }
      ],
      "name": "resetOwner",
      "outputs": [],
      "stateMutability": "nonpayable",
      "type": "function"
    },
    {
      "inputs": [],
      "name": "snapshot",
      "outputs": [
        {
          "internalType": "uint256",
          "name": "",
          "type": "uint256"
        }
      ],
      "stateMutability": "nonpayable",
      "type": "function"
    },
    {
      "inputs": [],
      "name": "symbol",
      "outputs": [
        {
          "internalType": "string",
          "name": "",
          "type": "string"
        }
      ],
      "stateMutability": "view",
      "type": "function"
    },
    {
      "inputs": [],
      "name": "totalSupply",
      "outputs": [
        {
          "internalType": "uint256",
          "name": "",
          "type": "uint256"
        }
      ],
      "stateMutability": "view",
      "type": "function"
    },
    {
      "inputs": [
        {
          "internalType": "uint256",
          "name": "snapshotId",
          "type": "uint256"
        }
      ],
      "name": "totalSupplyAt",
      "outputs": [
        {
          "internalType": "uint256",
          "name": "",
          "type": "uint256"
        }
      ],
      "stateMutability": "view",
      "type": "function"
    },
    {
      "inputs": [
        {
          "internalType": "address",
          "name": "recipient",
          "type": "address"
        },
        {
          "internalType": "uint256",
          "name": "amount",
          "type": "uint256"
        }
      ],
      "name": "transfer",
      "outputs": [
        {
          "internalType": "bool",
          "name": "",
          "type": "bool"
        }
      ],
      "stateMutability": "nonpayable",
      "type": "function"
    },
    {
      "inputs": [
        {
          "internalType": "address",
          "name": "sender",
          "type": "address"
        },
        {
          "internalType": "address",
          "name": "recipient",
          "type": "address"
        },
        {
          "internalType": "uint256",
          "name": "amount",
          "type": "uint256"
        }
      ],
      "name": "transferFrom",
      "outputs": [
        {
          "internalType": "bool",
          "name": "",
          "type": "bool"
        }
      ],
      "stateMutability": "nonpayable",
      "type": "function"
    }
  ],
  "bytecode": "0x60806040523480156200001157600080fd5b506040518060400160405280601381526020017f554d4120566f74696e6720546f6b656e2076310000000000000000000000000081525060405180604001604052806003815260200162554d4160e81b815250601282828160039080519060200190620000809291906200051f565b508051620000969060049060208401906200051f565b50506006805460ff191660ff841617905550620000b660008033620000e8565b620000d360015b6040805160008082526020820190925262000251565b620000df6002620000bd565b5050506200062a565b826000808281526005602052604090206001015460ff1660028111156200011f57634e487b7160e01b600052602160045260246000fd5b14620001725760405162461bcd60e51b815260206004820152601e60248201527f43616e6e6f74207573652061207072652d6578697374696e6720726f6c65000060448201526064015b60405180910390fd5b60008481526005602052604090206001808201805460ff191682800217905550838155620001b06002820184620003b0602090811b620013fd17901c565b60008481526005602052604081206001015460ff166002811115620001e557634e487b7160e01b600052602160045260246000fd5b14156200024a5760405162461bcd60e51b815260206004820152603c602482015260008051602062002ba283398151915260448201527f20746f206d616e61676520616e206578636c757369766520726f6c6500000000606482015260840162000169565b5050505050565b826000808281526005602052604090206001015460ff1660028111156200028857634e487b7160e01b600052602160045260246000fd5b14620002d75760405162461bcd60e51b815260206004820152601e60248201527f43616e6e6f74207573652061207072652d6578697374696e6720726f6c650000604482015260640162000169565b600084815260056020908152604090912060018101805460ff191660021790558481559062000316906003830190859062001407620003c0821b17901c565b60008481526005602052604081206001015460ff1660028111156200034b57634e487b7160e01b600052602160045260246000fd5b14156200024a5760405162461bcd60e51b8152602060048201526038602482015260008051602062002ba283398151915260448201527f20746f206d616e61676520612073686172656420726f6c650000000000000000606482015260840162000169565b620003bc828262000421565b5050565b60005b81518110156200041c576200040783838381518110620003f357634e487b7160e01b600052603260045260246000fd5b6020026020010151620004a260201b60201c565b80620004138162000602565b915050620003c3565b505050565b6001600160a01b038116620004855760405162461bcd60e51b815260206004820152602360248201527f43616e6e6f742073657420616e206578636c757369766520726f6c6520746f2060448201526203078360ec1b606482015260840162000169565b81546001600160a01b0319166001600160a01b0391909116179055565b6001600160a01b038116620004fa5760405162461bcd60e51b815260206004820152601f60248201527f43616e6e6f74206164642030783020746f20612073686172656420726f6c6500604482015260640162000169565b6001600160a01b0316600090815260209190915260409020805460ff19166001179055565b8280546200052d90620005c5565b90600052602060002090601f0160209004810192826200055157600085556200059c565b82601f106200056c57805160ff19168380011785556200059c565b828001600101855582156200059c579182015b828111156200059c5782518255916020019190600101906200057f565b50620005aa929150620005ae565b5090565b5b80821115620005aa5760008155600101620005af565b600181811c90821680620005da57607f821691505b60208210811415620005fc57634e487b7160e01b600052602260045260246000fd5b50919050565b60006000198214156200062357634e487b7160e01b81526011600452602481fd5b5060010190565b612568806200063a6000396000f3fe608060405234801561001057600080fd5b50600436106101ae5760003560e01c806379cc6790116100ee578063a457c2d711610097578063ab3545e511610071578063ab3545e514610385578063d97c05be146103bd578063dd62ed3e146103d0578063f44637ba1461041657600080fd5b8063a457c2d71461034c578063a9059cbb1461035f578063aaa14ca31461037257600080fd5b80639711715a116100c85780639711715a1461031e578063981b24d014610326578063983b2d561461033957600080fd5b806379cc6790146102f05780637cdc1cb91461030357806395d89b411461031657600080fd5b806340c10f191161015b5780636be7658b116101355780636be7658b1461028157806370a082311461029457806373cc802a146102ca57806374d0a676146102dd57600080fd5b806340c10f191461024657806342966c68146102595780634ee2cd7e1461026e57600080fd5b806323b872dd1161018c57806323b872dd14610206578063313ce56714610219578063395093511461023357600080fd5b806306fdde03146101b3578063095ea7b3146101d157806318160ddd146101f4575b600080fd5b6101bb610429565b6040516101c89190612385565b60405180910390f35b6101e46101df366004612322565b6104bb565b60405190151581526020016101c8565b6002545b6040519081526020016101c8565b6101e46102143660046122e7565b6104d2565b6102216105c4565b60405160ff90911681526020016101c8565b6101e4610241366004612322565b6105d7565b6101e4610254366004612322565b61061b565b61026c61026736600461234b565b6106c9565b005b6101f861027c366004612322565b61076f565b61026c61028f366004612363565b6107e2565b6101f86102a236600461229b565b73ffffffffffffffffffffffffffffffffffffffff1660009081526020819052604090205490565b61026c6102d836600461229b565b6109f0565b61026c6102eb366004612363565b6109fe565b6101e46102fe366004612322565b610be7565b6101e4610311366004612363565b610c8b565b6101bb610de3565b6101f8610df2565b6101f861033436600461234b565b610dfc565b61026c61034736600461229b565b610e27565b6101e461035a366004612322565b610e33565b6101e461036d366004612322565b610f03565b61026c61038036600461234b565b610f10565b61039861039336600461234b565b6110fa565b60405173ffffffffffffffffffffffffffffffffffffffff90911681526020016101c8565b61026c6103cb366004612363565b61120a565b6101f86103de3660046122b5565b73ffffffffffffffffffffffffffffffffffffffff918216600090815260016020908152604080832093909416825291909152205490565b61026c61042436600461229b565b6113f3565b60606003805461043890612439565b80601f016020809104026020016040519081016040528092919081815260200182805461046490612439565b80156104b15780601f10610486576101008083540402835291602001916104b1565b820191906000526020600020905b81548152906001019060200180831161049457829003601f168201915b5050505050905090565b60006104c8338484611474565b5060015b92915050565b60006104df848484611628565b73ffffffffffffffffffffffffffffffffffffffff84166000908152600160209081526040808320338452909152902054828110156105a5576040517f08c379a000000000000000000000000000000000000000000000000000000000815260206004820152602860248201527f45524332303a207472616e7366657220616d6f756e742065786365656473206160448201527f6c6c6f77616e636500000000000000000000000000000000000000000000000060648201526084015b60405180910390fd5b6105b985336105b48685612422565b611474565b506001949350505050565b60006105d260065460ff1690565b905090565b33600081815260016020908152604080832073ffffffffffffffffffffffffffffffffffffffff8716845290915281205490916104c89185906105b49086906123f6565b600060016106298133610c8b565b6106b5576040517f08c379a000000000000000000000000000000000000000000000000000000000815260206004820152602260248201527f53656e64657220646f6573206e6f7420686f6c6420726571756972656420726f60448201527f6c65000000000000000000000000000000000000000000000000000000000000606482015260840161059c565b6106bf8484611633565b5060019392505050565b60026106d58133610c8b565b610761576040517f08c379a000000000000000000000000000000000000000000000000000000000815260206004820152602260248201527f53656e64657220646f6573206e6f7420686f6c6420726571756972656420726f60448201527f6c65000000000000000000000000000000000000000000000000000000000000606482015260840161059c565b61076b338361163d565b5050565b73ffffffffffffffffffffffffffffffffffffffff82166000908152600760205260408120819081906107a3908590611647565b91509150816107d75773ffffffffffffffffffffffffffffffffffffffff85166000908152602081905260409020546107d9565b805b95945050505050565b81600260008281526005602052604090206001015460ff166002811115610832577f4e487b7100000000000000000000000000000000000000000000000000000000600052602160045260246000fd5b146108bf576040517f08c379a000000000000000000000000000000000000000000000000000000000815260206004820152602c60248201527f4d7573742062652063616c6c6564206f6e20616e20696e697469616c697a656460448201527f2053686172656420726f6c650000000000000000000000000000000000000000606482015260840161059c565b60008381526005602052604090205483906108da9033610c8b565b610965576040517f08c379a0000000000000000000000000000000000000000000000000000000008152602060048201526024808201527f43616e206f6e6c792062652063616c6c6564206279206120726f6c65206d616e60448201527f6167657200000000000000000000000000000000000000000000000000000000606482015260840161059c565b600084815260056020908152604080832073ffffffffffffffffffffffffffffffffffffffff8716808552600390910190925280832080547fffffffffffffffffffffffffffffffffffffffffffffffffffffffffffffff0016905551339287917feb3e33034c392e69263b04ec0fa376dc12784a41b6676c7f31b936cbc0fbb5af9190a450505050565b6109fb60008261120a565b50565b81600260008281526005602052604090206001015460ff166002811115610a4e577f4e487b7100000000000000000000000000000000000000000000000000000000600052602160045260246000fd5b14610adb576040517f08c379a000000000000000000000000000000000000000000000000000000000815260206004820152602c60248201527f4d7573742062652063616c6c6564206f6e20616e20696e697469616c697a656460448201527f2053686172656420726f6c650000000000000000000000000000000000000000606482015260840161059c565b6000838152600560205260409020548390610af69033610c8b565b610b81576040517f08c379a0000000000000000000000000000000000000000000000000000000008152602060048201526024808201527f43616e206f6e6c792062652063616c6c6564206279206120726f6c65206d616e60448201527f6167657200000000000000000000000000000000000000000000000000000000606482015260840161059c565b6000848152600560205260409020610b9c906003018461179b565b604051339073ffffffffffffffffffffffffffffffffffffffff85169086907f63502af7324ff6db91ab38f8236a648727d9385ea6c782073dd4882d8a61a48f90600090a450505050565b60006002610bf58133610c8b565b610c81576040517f08c379a000000000000000000000000000000000000000000000000000000000815260206004820152602260248201527f53656e64657220646f6573206e6f7420686f6c6420726571756972656420726f60448201527f6c65000000000000000000000000000000000000000000000000000000000000606482015260840161059c565b6106bf848461163d565b600082815260056020526040812060018082015460ff166002811115610cda577f4e487b7100000000000000000000000000000000000000000000000000000000600052602160045260246000fd5b1415610d0957600281015473ffffffffffffffffffffffffffffffffffffffff8481169116145b9150506104cc565b6002600182015460ff166002811115610d4b577f4e487b7100000000000000000000000000000000000000000000000000000000600052602160045260246000fd5b1415610d815773ffffffffffffffffffffffffffffffffffffffff8316600090815260038201602052604090205460ff16610d01565b6040517f08c379a000000000000000000000000000000000000000000000000000000000815260206004820152600e60248201527f496e76616c696420726f6c654964000000000000000000000000000000000000604482015260640161059c565b60606004805461043890612439565b60006105d2611868565b6000806000610e0c846008611647565b9150915081610e1d57600254610e1f565b805b949350505050565b6109fb60015b826109fe565b33600090815260016020908152604080832073ffffffffffffffffffffffffffffffffffffffff8616845290915281205482811015610ef4576040517f08c379a000000000000000000000000000000000000000000000000000000000815260206004820152602560248201527f45524332303a2064656372656173656420616c6c6f77616e63652062656c6f7760448201527f207a65726f000000000000000000000000000000000000000000000000000000606482015260840161059c565b6106bf33856105b48685612422565b60006104c8338484611628565b80600260008281526005602052604090206001015460ff166002811115610f60577f4e487b7100000000000000000000000000000000000000000000000000000000600052602160045260246000fd5b14610fed576040517f08c379a000000000000000000000000000000000000000000000000000000000815260206004820152602c60248201527f4d7573742062652063616c6c6564206f6e20616e20696e697469616c697a656460448201527f2053686172656420726f6c650000000000000000000000000000000000000000606482015260840161059c565b81610ff88133610c8b565b611084576040517f08c379a000000000000000000000000000000000000000000000000000000000815260206004820152602260248201527f53656e64657220646f6573206e6f7420686f6c6420726571756972656420726f60448201527f6c65000000000000000000000000000000000000000000000000000000000000606482015260840161059c565b6000838152600560209081526040808320338452600301909152902080547fffffffffffffffffffffffffffffffffffffffffffffffffffffffffffffff001690556040513390819085907feb3e33034c392e69263b04ec0fa376dc12784a41b6676c7f31b936cbc0fbb5af90600090a4505050565b600081600160008281526005602052604090206001015460ff16600281111561114c577f4e487b7100000000000000000000000000000000000000000000000000000000600052602160045260246000fd5b146111d9576040517f08c379a000000000000000000000000000000000000000000000000000000000815260206004820152602f60248201527f4d7573742062652063616c6c6564206f6e20616e20696e697469616c697a656460448201527f204578636c757369766520726f6c650000000000000000000000000000000000606482015260840161059c565b60008381526005602052604090206002015473ffffffffffffffffffffffffffffffffffffffff1691505b50919050565b81600160008281526005602052604090206001015460ff16600281111561125a577f4e487b7100000000000000000000000000000000000000000000000000000000600052602160045260246000fd5b146112e7576040517f08c379a000000000000000000000000000000000000000000000000000000000815260206004820152602f60248201527f4d7573742062652063616c6c6564206f6e20616e20696e697469616c697a656460448201527f204578636c757369766520726f6c650000000000000000000000000000000000606482015260840161059c565b60008381526005602052604090205483906113029033610c8b565b61138d576040517f08c379a0000000000000000000000000000000000000000000000000000000008152602060048201526024808201527f43616e206f6e6c792062652063616c6c6564206279206120726f6c65206d616e60448201527f6167657200000000000000000000000000000000000000000000000000000000606482015260840161059c565b60008481526005602052604090206113a890600201846118c3565b604051339073ffffffffffffffffffffffffffffffffffffffff85169086907f3b855c56b409b671c7112789d022675eb639d0bcb8896f1b6197c132f799e74690600090a450505050565b6109fb6002610e2d565b61076b82826118c3565b60005b815181101561146f5761145d83838381518110611450577f4e487b7100000000000000000000000000000000000000000000000000000000600052603260045260246000fd5b602002602001015161179b565b8061146781612487565b91505061140a565b505050565b73ffffffffffffffffffffffffffffffffffffffff8316611516576040517f08c379a0000000000000000000000000000000000000000000000000000000008152602060048201526024808201527f45524332303a20617070726f76652066726f6d20746865207a65726f2061646460448201527f7265737300000000000000000000000000000000000000000000000000000000606482015260840161059c565b73ffffffffffffffffffffffffffffffffffffffff82166115b9576040517f08c379a000000000000000000000000000000000000000000000000000000000815260206004820152602260248201527f45524332303a20617070726f766520746f20746865207a65726f20616464726560448201527f7373000000000000000000000000000000000000000000000000000000000000606482015260840161059c565b73ffffffffffffffffffffffffffffffffffffffff83811660008181526001602090815260408083209487168084529482529182902085905590518481527f8c5be1e5ebec7d5bd14f71427d1e84f3dd0314c0f7b2291e5b200ac8c7c3b92591015b60405180910390a3505050565b61146f8383836119a8565b61076b8282611c70565b61076b8282611d9c565b600080600084116116b4576040517f08c379a000000000000000000000000000000000000000000000000000000000815260206004820152601660248201527f4552433230536e617073686f743a206964206973203000000000000000000000604482015260640161059c565b600a54841115611720576040517f08c379a000000000000000000000000000000000000000000000000000000000815260206004820152601d60248201527f4552433230536e617073686f743a206e6f6e6578697374656e74206964000000604482015260640161059c565b600061172c8486611f96565b8454909150811415611745576000809250925050611794565b6001846001018281548110611783577f4e487b7100000000000000000000000000000000000000000000000000000000600052603260045260246000fd5b906000526020600020015492509250505b9250929050565b73ffffffffffffffffffffffffffffffffffffffff8116611818576040517f08c379a000000000000000000000000000000000000000000000000000000000815260206004820152601f60248201527f43616e6e6f74206164642030783020746f20612073686172656420726f6c6500604482015260640161059c565b73ffffffffffffffffffffffffffffffffffffffff1660009081526020919091526040902080547fffffffffffffffffffffffffffffffffffffffffffffffffffffffffffffff00166001179055565b6000611878600a80546001019055565b6000611883600a5490565b90507f8030e83b04d87bef53480e26263266d6ca66863aa8506aca6f2559d18aa1cb67816040516118b691815260200190565b60405180910390a1919050565b73ffffffffffffffffffffffffffffffffffffffff8116611966576040517f08c379a000000000000000000000000000000000000000000000000000000000815260206004820152602360248201527f43616e6e6f742073657420616e206578636c757369766520726f6c6520746f2060448201527f3078300000000000000000000000000000000000000000000000000000000000606482015260840161059c565b81547fffffffffffffffffffffffff00000000000000000000000000000000000000001673ffffffffffffffffffffffffffffffffffffffff91909116179055565b73ffffffffffffffffffffffffffffffffffffffff8316611a4b576040517f08c379a000000000000000000000000000000000000000000000000000000000815260206004820152602560248201527f45524332303a207472616e736665722066726f6d20746865207a65726f20616460448201527f6472657373000000000000000000000000000000000000000000000000000000606482015260840161059c565b73ffffffffffffffffffffffffffffffffffffffff8216611aee576040517f08c379a000000000000000000000000000000000000000000000000000000000815260206004820152602360248201527f45524332303a207472616e7366657220746f20746865207a65726f206164647260448201527f6573730000000000000000000000000000000000000000000000000000000000606482015260840161059c565b611af98383836120a7565b73ffffffffffffffffffffffffffffffffffffffff831660009081526020819052604090205481811015611baf576040517f08c379a000000000000000000000000000000000000000000000000000000000815260206004820152602660248201527f45524332303a207472616e7366657220616d6f756e742065786365656473206260448201527f616c616e63650000000000000000000000000000000000000000000000000000606482015260840161059c565b611bb98282612422565b73ffffffffffffffffffffffffffffffffffffffff8086166000908152602081905260408082209390935590851681529081208054849290611bfc9084906123f6565b925050819055508273ffffffffffffffffffffffffffffffffffffffff168473ffffffffffffffffffffffffffffffffffffffff167fddf252ad1be2c89b69c2b068fc378daa952ba7f163c4a11628f55a4df523b3ef84604051611c6291815260200190565b60405180910390a350505050565b73ffffffffffffffffffffffffffffffffffffffff8216611ced576040517f08c379a000000000000000000000000000000000000000000000000000000000815260206004820152601f60248201527f45524332303a206d696e7420746f20746865207a65726f206164647265737300604482015260640161059c565b611cf9600083836120a7565b8060026000828254611d0b91906123f6565b909155505073ffffffffffffffffffffffffffffffffffffffff821660009081526020819052604081208054839290611d459084906123f6565b909155505060405181815273ffffffffffffffffffffffffffffffffffffffff8316906000907fddf252ad1be2c89b69c2b068fc378daa952ba7f163c4a11628f55a4df523b3ef9060200160405180910390a35050565b73ffffffffffffffffffffffffffffffffffffffff8216611e3f576040517f08c379a000000000000000000000000000000000000000000000000000000000815260206004820152602160248201527f45524332303a206275726e2066726f6d20746865207a65726f2061646472657360448201527f7300000000000000000000000000000000000000000000000000000000000000606482015260840161059c565b611e4b826000836120a7565b73ffffffffffffffffffffffffffffffffffffffff821660009081526020819052604090205481811015611f01576040517f08c379a000000000000000000000000000000000000000000000000000000000815260206004820152602260248201527f45524332303a206275726e20616d6f756e7420657863656564732062616c616e60448201527f6365000000000000000000000000000000000000000000000000000000000000606482015260840161059c565b611f0b8282612422565b73ffffffffffffffffffffffffffffffffffffffff841660009081526020819052604081209190915560028054849290611f46908490612422565b909155505060405182815260009073ffffffffffffffffffffffffffffffffffffffff8516907fddf252ad1be2c89b69c2b068fc378daa952ba7f163c4a11628f55a4df523b3ef9060200161161b565b8154600090611fa7575060006104cc565b82546000905b8082101561202a576000611fc183836120b2565b905084868281548110611ffd577f4e487b7100000000000000000000000000000000000000000000000000000000600052603260045260246000fd5b9060005260206000200154111561201657809150612024565b6120218160016123f6565b92505b50611fad565b60008211801561208657508385612042600185612422565b81548110612079577f4e487b7100000000000000000000000000000000000000000000000000000000600052603260045260246000fd5b9060005260206000200154145b1561209f57612096600183612422565b925050506104cc565b5090506104cc565b61146f838383612110565b600060026120c081846124c0565b6120cb6002866124c0565b6120d591906123f6565b6120df919061240e565b6120ea60028461240e565b6120f560028661240e565b6120ff91906123f6565b61210991906123f6565b9392505050565b73ffffffffffffffffffffffffffffffffffffffff831661213c576121348261216e565b61146f6121ad565b73ffffffffffffffffffffffffffffffffffffffff8216612160576121348361216e565b6121698361216e565b61146f825b73ffffffffffffffffffffffffffffffffffffffff8116600090815260076020908152604080832091839052909120546109fb91906121bd565b6121bd565b6121bb60086121a860025490565b565b60006121c8600a5490565b9050806121d484612208565b101561146f578254600180820185556000858152602080822090930193909355938401805494850181558252902090910155565b805460009061221957506000919050565b8154829061222990600190612422565b81548110612260577f4e487b7100000000000000000000000000000000000000000000000000000000600052603260045260246000fd5b90600052602060002001549050919050565b919050565b803573ffffffffffffffffffffffffffffffffffffffff8116811461227257600080fd5b6000602082840312156122ac578081fd5b61210982612277565b600080604083850312156122c7578081fd5b6122d083612277565b91506122de60208401612277565b90509250929050565b6000806000606084860312156122fb578081fd5b61230484612277565b925061231260208501612277565b9150604084013590509250925092565b60008060408385031215612334578182fd5b61233d83612277565b946020939093013593505050565b60006020828403121561235c578081fd5b5035919050565b60008060408385031215612375578182fd5b823591506122de60208401612277565b6000602080835283518082850152825b818110156123b157858101830151858201604001528201612395565b818111156123c25783604083870101525b50601f017fffffffffffffffffffffffffffffffffffffffffffffffffffffffffffffffe016929092016040019392505050565b60008219821115612409576124096124d4565b500190565b60008261241d5761241d612503565b500490565b600082821015612434576124346124d4565b500390565b600181811c9082168061244d57607f821691505b60208210811415611204577f4e487b7100000000000000000000000000000000000000000000000000000000600052602260045260246000fd5b60007fffffffffffffffffffffffffffffffffffffffffffffffffffffffffffffffff8214156124b9576124b96124d4565b5060010190565b6000826124cf576124cf612503565b500690565b7f4e487b7100000000000000000000000000000000000000000000000000000000600052601160045260246000fd5b7f4e487b7100000000000000000000000000000000000000000000000000000000600052601260045260246000fdfea26469706673582212204ea0e1b5684b67b3eef71a3531a0f8e97280ddb0309426926a69fceae19c770964736f6c63430008040033417474656d7074656420746f2075736520616e20696e76616c696420726f6c65",
  "linkReferences": {},
  "deployedLinkReferences": {}
}